{
  "address": "0x01B6D4C8c881193DDBC88396D3d54aA45ae79eBd",
  "abi": [
    {
      "inputs": [
        {
          "internalType": "address",
          "name": "_WETH",
          "type": "address"
        }
      ],
      "stateMutability": "nonpayable",
      "type": "constructor"
    },
    {
      "anonymous": false,
      "inputs": [
        {
          "indexed": false,
          "internalType": "bytes",
          "name": "clientData",
          "type": "bytes"
        }
      ],
      "name": "ClientData",
      "type": "event"
    },
    {
      "anonymous": false,
      "inputs": [
        {
          "indexed": false,
          "internalType": "string",
          "name": "reason",
          "type": "string"
        }
      ],
      "name": "Error",
      "type": "event"
    },
    {
      "anonymous": false,
      "inputs": [
        {
          "indexed": false,
          "internalType": "address",
          "name": "pair",
          "type": "address"
        },
        {
          "indexed": false,
          "internalType": "uint256",
          "name": "amountOut",
          "type": "uint256"
        },
        {
          "indexed": false,
          "internalType": "address",
          "name": "output",
          "type": "address"
        }
      ],
      "name": "Exchange",
      "type": "event"
    },
    {
      "anonymous": false,
      "inputs": [
        {
          "indexed": false,
          "internalType": "address",
          "name": "token",
          "type": "address"
        },
        {
          "indexed": false,
          "internalType": "uint256",
          "name": "totalAmount",
          "type": "uint256"
        },
        {
          "indexed": false,
          "internalType": "uint256",
          "name": "totalFee",
          "type": "uint256"
        },
        {
          "indexed": false,
          "internalType": "address[]",
          "name": "recipients",
          "type": "address[]"
        },
        {
          "indexed": false,
          "internalType": "uint256[]",
          "name": "amounts",
          "type": "uint256[]"
        },
        {
          "indexed": false,
          "internalType": "bool",
          "name": "isBps",
          "type": "bool"
        }
      ],
      "name": "Fee",
      "type": "event"
    },
    {
      "anonymous": false,
      "inputs": [
        {
          "indexed": true,
          "internalType": "address",
          "name": "previousOwner",
          "type": "address"
        },
        {
          "indexed": true,
          "internalType": "address",
          "name": "newOwner",
          "type": "address"
        }
      ],
      "name": "OwnershipTransferred",
      "type": "event"
    },
    {
      "anonymous": false,
      "inputs": [
        {
          "indexed": false,
          "internalType": "address",
          "name": "sender",
          "type": "address"
        },
        {
          "indexed": false,
          "internalType": "contract IERC20",
          "name": "srcToken",
          "type": "address"
        },
        {
          "indexed": false,
          "internalType": "contract IERC20",
          "name": "dstToken",
          "type": "address"
        },
        {
          "indexed": false,
          "internalType": "address",
          "name": "dstReceiver",
          "type": "address"
        },
        {
          "indexed": false,
          "internalType": "uint256",
          "name": "spentAmount",
          "type": "uint256"
        },
        {
          "indexed": false,
          "internalType": "uint256",
          "name": "returnAmount",
          "type": "uint256"
        }
      ],
      "name": "Swapped",
      "type": "event"
    },
    {
      "inputs": [],
      "name": "WETH",
      "outputs": [
        {
          "internalType": "address",
          "name": "",
          "type": "address"
        }
      ],
      "stateMutability": "view",
      "type": "function"
    },
    {
      "inputs": [
        {
          "internalType": "address",
          "name": "",
          "type": "address"
        }
      ],
      "name": "isWhitelist",
      "outputs": [
        {
          "internalType": "bool",
          "name": "",
          "type": "bool"
        }
      ],
      "stateMutability": "view",
      "type": "function"
    },
    {
      "inputs": [],
      "name": "owner",
      "outputs": [
        {
          "internalType": "address",
          "name": "",
          "type": "address"
        }
      ],
      "stateMutability": "view",
      "type": "function"
    },
    {
      "inputs": [],
      "name": "renounceOwnership",
      "outputs": [],
      "stateMutability": "nonpayable",
      "type": "function"
    },
    {
      "inputs": [
        {
          "internalType": "address",
          "name": "token",
          "type": "address"
        },
        {
          "internalType": "uint256",
          "name": "amount",
          "type": "uint256"
        }
      ],
      "name": "rescueFunds",
      "outputs": [],
      "stateMutability": "nonpayable",
      "type": "function"
    },
    {
      "inputs": [
        {
          "components": [
            {
              "internalType": "address",
              "name": "callTarget",
              "type": "address"
            },
            {
              "internalType": "address",
              "name": "approveTarget",
              "type": "address"
            },
            {
              "internalType": "bytes",
              "name": "targetData",
              "type": "bytes"
            },
            {
              "components": [
                {
                  "internalType": "contract IERC20",
                  "name": "srcToken",
                  "type": "address"
                },
                {
                  "internalType": "contract IERC20",
                  "name": "dstToken",
                  "type": "address"
                },
                {
                  "internalType": "address[]",
                  "name": "srcReceivers",
                  "type": "address[]"
                },
                {
                  "internalType": "uint256[]",
                  "name": "srcAmounts",
                  "type": "uint256[]"
                },
                {
                  "internalType": "address[]",
                  "name": "feeReceivers",
                  "type": "address[]"
                },
                {
                  "internalType": "uint256[]",
                  "name": "feeAmounts",
                  "type": "uint256[]"
                },
                {
                  "internalType": "address",
                  "name": "dstReceiver",
                  "type": "address"
                },
                {
                  "internalType": "uint256",
                  "name": "amount",
                  "type": "uint256"
                },
                {
                  "internalType": "uint256",
                  "name": "minReturnAmount",
                  "type": "uint256"
                },
                {
                  "internalType": "uint256",
                  "name": "flags",
                  "type": "uint256"
                },
                {
                  "internalType": "bytes",
                  "name": "permit",
                  "type": "bytes"
                }
              ],
              "internalType": "struct IMetaAggregationRouterV2.SwapDescriptionV2",
              "name": "desc",
              "type": "tuple"
            },
            {
              "internalType": "bytes",
              "name": "clientData",
              "type": "bytes"
            }
          ],
          "internalType": "struct IMetaAggregationRouterV2.SwapExecutionParams",
          "name": "execution",
          "type": "tuple"
        }
      ],
      "name": "swap",
      "outputs": [
        {
          "internalType": "uint256",
          "name": "returnAmount",
          "type": "uint256"
        },
        {
          "internalType": "uint256",
          "name": "gasUsed",
          "type": "uint256"
        }
      ],
      "stateMutability": "payable",
      "type": "function"
    },
    {
      "inputs": [
        {
          "components": [
            {
              "internalType": "address",
              "name": "callTarget",
              "type": "address"
            },
            {
              "internalType": "address",
              "name": "approveTarget",
              "type": "address"
            },
            {
              "internalType": "bytes",
              "name": "targetData",
              "type": "bytes"
            },
            {
              "components": [
                {
                  "internalType": "contract IERC20",
                  "name": "srcToken",
                  "type": "address"
                },
                {
                  "internalType": "contract IERC20",
                  "name": "dstToken",
                  "type": "address"
                },
                {
                  "internalType": "address[]",
                  "name": "srcReceivers",
                  "type": "address[]"
                },
                {
                  "internalType": "uint256[]",
                  "name": "srcAmounts",
                  "type": "uint256[]"
                },
                {
                  "internalType": "address[]",
                  "name": "feeReceivers",
                  "type": "address[]"
                },
                {
                  "internalType": "uint256[]",
                  "name": "feeAmounts",
                  "type": "uint256[]"
                },
                {
                  "internalType": "address",
                  "name": "dstReceiver",
                  "type": "address"
                },
                {
                  "internalType": "uint256",
                  "name": "amount",
                  "type": "uint256"
                },
                {
                  "internalType": "uint256",
                  "name": "minReturnAmount",
                  "type": "uint256"
                },
                {
                  "internalType": "uint256",
                  "name": "flags",
                  "type": "uint256"
                },
                {
                  "internalType": "bytes",
                  "name": "permit",
                  "type": "bytes"
                }
              ],
              "internalType": "struct IMetaAggregationRouterV2.SwapDescriptionV2",
              "name": "desc",
              "type": "tuple"
            },
            {
              "internalType": "bytes",
              "name": "clientData",
              "type": "bytes"
            }
          ],
          "internalType": "struct IMetaAggregationRouterV2.SwapExecutionParams",
          "name": "execution",
          "type": "tuple"
        }
      ],
      "name": "swapGeneric",
      "outputs": [
        {
          "internalType": "uint256",
          "name": "returnAmount",
          "type": "uint256"
        },
        {
          "internalType": "uint256",
          "name": "gasUsed",
          "type": "uint256"
        }
      ],
      "stateMutability": "payable",
      "type": "function"
    },
    {
      "inputs": [
        {
          "internalType": "contract IAggregationExecutor",
          "name": "caller",
          "type": "address"
        },
        {
          "components": [
            {
              "internalType": "contract IERC20",
              "name": "srcToken",
              "type": "address"
            },
            {
              "internalType": "contract IERC20",
              "name": "dstToken",
              "type": "address"
            },
            {
              "internalType": "address[]",
              "name": "srcReceivers",
              "type": "address[]"
            },
            {
              "internalType": "uint256[]",
              "name": "srcAmounts",
              "type": "uint256[]"
            },
            {
              "internalType": "address[]",
              "name": "feeReceivers",
              "type": "address[]"
            },
            {
              "internalType": "uint256[]",
              "name": "feeAmounts",
              "type": "uint256[]"
            },
            {
              "internalType": "address",
              "name": "dstReceiver",
              "type": "address"
            },
            {
              "internalType": "uint256",
              "name": "amount",
              "type": "uint256"
            },
            {
              "internalType": "uint256",
              "name": "minReturnAmount",
              "type": "uint256"
            },
            {
              "internalType": "uint256",
              "name": "flags",
              "type": "uint256"
            },
            {
              "internalType": "bytes",
              "name": "permit",
              "type": "bytes"
            }
          ],
          "internalType": "struct IMetaAggregationRouterV2.SwapDescriptionV2",
          "name": "desc",
          "type": "tuple"
        },
        {
          "internalType": "bytes",
          "name": "executorData",
          "type": "bytes"
        },
        {
          "internalType": "bytes",
          "name": "clientData",
          "type": "bytes"
        }
      ],
      "name": "swapSimpleMode",
      "outputs": [
        {
          "internalType": "uint256",
          "name": "returnAmount",
          "type": "uint256"
        },
        {
          "internalType": "uint256",
          "name": "gasUsed",
          "type": "uint256"
        }
      ],
      "stateMutability": "nonpayable",
      "type": "function"
    },
    {
      "inputs": [
        {
          "internalType": "address",
          "name": "newOwner",
          "type": "address"
        }
      ],
      "name": "transferOwnership",
      "outputs": [],
      "stateMutability": "nonpayable",
      "type": "function"
    },
    {
      "inputs": [
        {
          "internalType": "address[]",
          "name": "addr",
          "type": "address[]"
        },
        {
          "internalType": "bool[]",
          "name": "value",
          "type": "bool[]"
        }
      ],
      "name": "updateWhitelist",
      "outputs": [],
      "stateMutability": "nonpayable",
      "type": "function"
    },
    {
      "stateMutability": "payable",
      "type": "receive"
    }
  ],
  "transactionHash": "0xd0599870be624cb5b3714a2e3f05855991af6cc9f331afda917cf3ff482bded2",
  "args": [
    "0x1514000000000000000000000000000000000000"
  ],
  "numDeployments": 1,
  "solcInputHash": "b800e91696be674ce554540aa080b796",
  "bytecode": "0x60a060405234801561001057600080fd5b50604051615aa5380380615aa5833981810160405281019061003291906101b7565b61004e61004361008860201b60201c565b61009060201b60201c565b8073ffffffffffffffffffffffffffffffffffffffff1660808173ffffffffffffffffffffffffffffffffffffffff1681525050506101e4565b600033905090565b60008060009054906101000a900473ffffffffffffffffffffffffffffffffffffffff169050816000806101000a81548173ffffffffffffffffffffffffffffffffffffffff021916908373ffffffffffffffffffffffffffffffffffffffff1602179055508173ffffffffffffffffffffffffffffffffffffffff168173ffffffffffffffffffffffffffffffffffffffff167f8be0079c531659141344cd1fd0a4f28419497f9722a3daafe3b4186f6b6457e060405160405180910390a35050565b600080fd5b600073ffffffffffffffffffffffffffffffffffffffff82169050919050565b600061018482610159565b9050919050565b61019481610179565b811461019f57600080fd5b50565b6000815190506101b18161018b565b92915050565b6000602082840312156101cd576101cc610154565b5b60006101db848285016101a2565b91505092915050565b608051615891610214600039600081816109c601528181610d7a01528181610e2a015261130d01526158916000f3fe6080604052600436106100955760003560e01c80638da5cb5b116100595780638da5cb5b14610179578063ad5c4648146101a4578063c683630d146101cf578063e21fd0e91461020c578063f2fde38b1461023d5761009c565b806333320de3146100a157806359e50fed146100ca578063715018a6146100fb57806378e3214f146101125780638af033fb1461013b5761009c565b3661009c57005b600080fd5b3480156100ad57600080fd5b506100c860048036038101906100c39190613870565b610266565b005b6100e460048036038101906100df919061390c565b610323565b6040516100f292919061396e565b60405180910390f35b34801561010757600080fd5b50610110610a53565b005b34801561011e57600080fd5b50610139600480360381019061013491906139c3565b610a67565b005b34801561014757600080fd5b50610162600480360381019061015d9190613df4565b610a9c565b60405161017092919061396e565b60405180910390f35b34801561018557600080fd5b5061018e610dff565b60405161019b9190613ec6565b60405180910390f35b3480156101b057600080fd5b506101b9610e28565b6040516101c69190613ec6565b60405180910390f35b3480156101db57600080fd5b506101f660048036038101906101f19190613ee1565b610e4c565b6040516102039190613f1d565b60405180910390f35b6102266004803603810190610221919061390c565b610e6c565b60405161023492919061396e565b60405180910390f35b34801561024957600080fd5b50610264600480360381019061025f9190613ee1565b61139b565b005b61026e61141e565b805182511461027c57600080fd5b60005b825181101561031e5781818151811061029b5761029a613f38565b5b6020026020010151600160008584815181106102ba576102b9613f38565b5b602002602001015173ffffffffffffffffffffffffffffffffffffffff1673ffffffffffffffffffffffffffffffffffffffff16815260200190815260200160002060006101000a81548160ff02191690831515021790555080600101905061027f565b505050565b60008060005a9050600160008560000160208101906103429190613ee1565b73ffffffffffffffffffffffffffffffffffffffff1673ffffffffffffffffffffffffffffffffffffffff16815260200190815260200160002060009054906101000a900460ff166103c9576040517f08c379a00000000000000000000000000000000000000000000000000000000081526004016103c090613fc4565b60405180910390fd5b8360000160208101906103dc9190613ee1565b73ffffffffffffffffffffffffffffffffffffffff168460200160208101906104059190613ee1565b73ffffffffffffffffffffffffffffffffffffffff16141580156104685750600073ffffffffffffffffffffffffffffffffffffffff1684602001602081019061044f9190613ee1565b73ffffffffffffffffffffffffffffffffffffffff1614155b1561050c57600160008560200160208101906104849190613ee1565b73ffffffffffffffffffffffffffffffffffffffff1673ffffffffffffffffffffffffffffffffffffffff16815260200190815260200160002060009054906101000a900460ff1661050b576040517f08c379a000000000000000000000000000000000000000000000000000000000815260040161050290613fc4565b60405180910390fd5b5b600084806060019061051e9190613ff3565b6105279061401c565b9050600081610100015111610571576040517f08c379a00000000000000000000000000000000000000000000000000000000081526004016105689061407b565b60405180910390fd5b61057a8161149c565b61059281600001518260e00151836101400151611572565b60006105a4826101200151608061175b565b9050600080600073ffffffffffffffffffffffffffffffffffffffff168460c0015173ffffffffffffffffffffffffffffffffffffffff16146105eb578360c001516105ed565b335b90506105ff846101200151604061175b565b61072a5761062184600001513386608001518760a001518860e001518861176b565b8460e001818152505060006106398560000151611913565b1580156106525750610651856101200151600461175b565b5b156106705761066285333061195f565b8660e0018181525081925050505b61068e338a60200160208101906106879190613ee1565b87846119fd565b61071c8960000160208101906106a49190613ee1565b8a80604001906106b4919061409b565b8080601f016020809104026020016040519081016040528093929190818152602001838380828437600081840152601f19601f82011690508083019250505050505050876107058960000151611913565b610710576000610716565b8860e001515b86611bc7565b80995081945050505061087f565b60006107398560000151611913565b1580156107525750610751856101200151600461175b565b5b156107705761076285333061195f565b8660e0018181525081925050505b6000610780866020015184611dca565b90506107a0338b60200160208101906107999190613ee1565b88856119fd565b61082a8a60000160208101906107b69190613ee1565b8b80604001906107c6919061409b565b8080601f016020809104026020016040519081016040528093929190818152602001838380828437600081840152601f19601f82011690508083019250505050505050886108178a60000151611913565b610822576000610824565b345b30611bc7565b809a508195505050600061084e87602001513089608001518a60a001518e8b61176b565b90506108608760200151308684611e7c565b5080610870876020015185611dca565b61087a919061412d565b985050505b61088a828886611f9c565b6108978460000151611913565b1580156108e35750600073ffffffffffffffffffffffffffffffffffffffff168860200160208101906108ca9190613ee1565b73ffffffffffffffffffffffffffffffffffffffff1614155b1561092b5761092a8860200160208101906108fe9190613ee1565b6000866000015173ffffffffffffffffffffffffffffffffffffffff166120669092919063ffffffff16565b5b7fd6d4f5681c246c9f42c203e287975af1601f8df8035a9251f79aab5c8f09e2f8338560000151866020015184868c60405161096c969594939291906141c0565b60405180910390a17fddac40937f35385a34f721af292e5a83fc5b840f722bff57c2fc71adba708c488860000160208101906109a89190613ee1565b886109b68760200151611913565b6109c45786602001516109e6565b7f00000000000000000000000000000000000000000000000000000000000000005b6040516109f593929190614221565b60405180910390a17f095e66fa4dd6a6f7b43fb8444a7bd0edb870508c7abf639bc216efb0bcff9779888060800190610a2e919061409b565b604051610a3c929190614296565b60405180910390a15a850395505050505050915091565b610a5b61141e565b610a6560006121b5565b565b610a6f61141e565b610a7882611913565b15610a8c57610a873382612279565b610a98565b610a97823383612383565b5b5050565b60008060005a9050610ab18860000151611913565b15610af1576040517f08c379a0000000000000000000000000000000000000000000000000000000008152600401610ae89061432c565b60405180910390fd5b610b0988600001518960e001518a6101400151611572565b60008073ffffffffffffffffffffffffffffffffffffffff168960c0015173ffffffffffffffffffffffffffffffffffffffff1614610b4c578860c00151610b4e565b335b90506000610b628a6101200151608061175b565b9050610b748a6101200151604061175b565b610ba457610b968a60000151338c608001518d60a001518e60e001518661176b565b8a60e0018181525050610ba8565b3091505b506000610bb98a6020015183611dca565b90506000610bcb8b6000015133611dca565b9050610be88c8c600001518d60e001518e60200151878f8f6124c3565b81610bf78c6020015185611dca565b610c01919061412d565b9550610c138b6101200151604061175b565b15610cc9576000610c2a8c6101200151608061175b565b9050610c468c60200151308e608001518f60a001518b8661176b565b96505060008b602001519050600073ffffffffffffffffffffffffffffffffffffffff168c60c0015173ffffffffffffffffffffffffffffffffffffffff1614610c94578b60c00151610c96565b335b9350610ca28185611dca565b9250610cb08130868a611e7c565b82610cbb8286611dca565b610cc5919061412d565b9650505b6000610cd98c6000015133611dca565b82610ce4919061412d565b9050610cf181888e611f9c565b7fd6d4f5681c246c9f42c203e287975af1601f8df8035a9251f79aab5c8f09e2f8338d600001518e6020015187858c604051610d32969594939291906141c0565b60405180910390a17fddac40937f35385a34f721af292e5a83fc5b840f722bff57c2fc71adba708c488d88610d6a8f60200151611913565b610d78578e60200151610d9a565b7f00000000000000000000000000000000000000000000000000000000000000005b604051610da993929190614221565b60405180910390a17f095e66fa4dd6a6f7b43fb8444a7bd0edb870508c7abf639bc216efb0bcff97798989604051610de2929190614296565b60405180910390a15a850395505050505050965096945050505050565b60008060009054906101000a900473ffffffffffffffffffffffffffffffffffffffff16905090565b7f000000000000000000000000000000000000000000000000000000000000000081565b60016020528060005260406000206000915054906101000a900460ff1681565b60008060005a90506000848060600190610e869190613ff3565b610e8f9061401c565b9050600081610100015111610ed9576040517f08c379a0000000000000000000000000000000000000000000000000000000008152600401610ed090614398565b60405180910390fd5b6000858060400190610eeb919061409b565b905011610f2d576040517f08c379a0000000000000000000000000000000000000000000000000000000008152600401610f2490614404565b60405180910390fd5b610f3d816101200151602061175b565b15610f8957610f7e856000016020810190610f589190613ee1565b82878060400190610f69919061409b565b898060800190610f79919061409b565b610a9c565b935093505050611396565b610f928161149c565b610faa81600001518260e00151836101400151611572565b6000610fbc826101200151608061175b565b9050600080600073ffffffffffffffffffffffffffffffffffffffff168460c0015173ffffffffffffffffffffffffffffffffffffffff1614611003578360c00151611005565b335b9050611017846101200151604061175b565b6111365761105184600001513386608001518760a0015161103b8960000151611913565b611049578860e0015161104b565b345b8861176b565b8460e00181815250506110683360008660006119fd565b61112988600001602081019061107e9190613ee1565b63d9c4535760e01b8a8060400190611096919061409b565b6040516024016110a7929190614296565b604051602081830303815290604052907bffffffffffffffffffffffffffffffffffffffffffffffffffffffff19166020820180517bffffffffffffffffffffffffffffffffffffffffffffffffffffffff8381831617835250505050866111128860000151611913565b61111d576000611123565b8760e001515b85611bc7565b8098508193505050611267565b6000611146856020015183611dca565b90506111563360008760006119fd565b61121389600001602081019061116c9190613ee1565b63d9c4535760e01b8b8060400190611184919061409b565b604051602401611195929190614296565b604051602081830303815290604052907bffffffffffffffffffffffffffffffffffffffffffffffffffffffff19166020820180517bffffffffffffffffffffffffffffffffffffffffffffffffffffffff8381831617835250505050876112008960000151611913565b61120b57600061120d565b345b30611bc7565b8099508194505050600061123786602001513088608001518960a001518d8a61176b565b90506112498660200151308584611e7c565b5080611259866020015184611dca565b611263919061412d565b9750505b611272828886611f9c565b7fd6d4f5681c246c9f42c203e287975af1601f8df8035a9251f79aab5c8f09e2f8338560000151866020015184868c6040516112b3969594939291906141c0565b60405180910390a17fddac40937f35385a34f721af292e5a83fc5b840f722bff57c2fc71adba708c488860000160208101906112ef9190613ee1565b886112fd8760200151611913565b61130b57866020015161132d565b7f00000000000000000000000000000000000000000000000000000000000000005b60405161133c93929190614221565b60405180910390a17f095e66fa4dd6a6f7b43fb8444a7bd0edb870508c7abf639bc216efb0bcff9779888060800190611375919061409b565b604051611383929190614296565b60405180910390a15a8503955050505050505b915091565b6113a361141e565b600073ffffffffffffffffffffffffffffffffffffffff168173ffffffffffffffffffffffffffffffffffffffff1603611412576040517f08c379a000000000000000000000000000000000000000000000000000000000815260040161140990614496565b60405180910390fd5b61141b816121b5565b50565b611426612963565b73ffffffffffffffffffffffffffffffffffffffff16611444610dff565b73ffffffffffffffffffffffffffffffffffffffff161461149a576040517f08c379a000000000000000000000000000000000000000000000000000000000815260040161149190614502565b60405180910390fd5b565b60006114ab8260000151611913565b90506114bd826101200151600261175b565b1561151a57806114ce5760006114d4565b8160e001515b3411611515576040517f08c379a000000000000000000000000000000000000000000000000000000000815260040161150c9061456e565b60405180910390fd5b61156e565b8061152657600061152c565b8160e001515b341461156d576040517f08c379a00000000000000000000000000000000000000000000000000000000081526004016115649061456e565b60405180910390fd5b5b5050565b60e0815103611756576000808473ffffffffffffffffffffffffffffffffffffffff1663d505accf60e01b846040516020016115af92919061464c565b6040516020818303038152906040526040516115cb9190614674565b6000604051808303816000865af19150503d8060008114611608576040519150601f19603f3d011682016040523d82523d6000602084013e61160d565b606091505b509150915081611753576000611658826040518060400160405280601481526020017f5065726d69742063616c6c206661696c65643a2000000000000000000000000081525061296b565b9050848673ffffffffffffffffffffffffffffffffffffffff1663dd62ed3e33306040518363ffffffff1660e01b815260040161169692919061468b565b602060405180830381865afa1580156116b3573d6000803e3d6000fd5b505050506040513d601f19601f820116820180604052508101906116d791906146c9565b101561171a57806040517f08c379a0000000000000000000000000000000000000000000000000000000008152600401611711919061473a565b60405180910390fd5b7f08c379a0afcc32b1a39302f7cb8073359698411ab5fd6e3edb2c02c0b5fba8aa81604051611749919061473a565b60405180910390a1505b50505b505050565b6000808284161415905092915050565b6000829050600085519050600081111561190857600061178a89611913565b905060006117a48a8361179d578a61179f565b305b611dca565b9050828751146117e9576040517f08c379a00000000000000000000000000000000000000000000000000000000081526004016117e0906147a8565b60405180910390fd5b60005b8381101561188f5760008661181b5788828151811061180e5761180d613f38565b5b602002602001015161184f565b61271089838151811061183157611830613f38565b5b60200260200101518961184491906147c8565b61184e9190614839565b5b90506118838c85611860578c611862565b305b8c858151811061187557611874613f38565b5b602002602001015184611e7c565b508060010190506117ec565b5060006118a88b846118a1578b6118a3565b305b611dca565b826118b3919061412d565b905080876118c1919061412d565b94507f4c39b7ce5f4f514f45cb6f82b171b8b0b7f2cbf488ad28e4eff451588e2f014b8b88838c8c8b6040516118fc969594939291906149e6565b60405180910390a15050505b509695505050505050565b600073eeeeeeeeeeeeeeeeeeeeeeeeeeeeeeeeeeeeeeee73ffffffffffffffffffffffffffffffffffffffff168273ffffffffffffffffffffffffffffffffffffffff16149050919050565b60008061196f8560000151611913565b156119af576040517f08c379a00000000000000000000000000000000000000000000000000000000081526004016119a690614aa1565b60405180910390fd5b60006119bf866000015130611dca565b90506119d5866000015186868960e00151611e7c565b60019250806119e8876000015130611dca565b6119f2919061412d565b915050935093915050565b81606001515182604001515114611a49576040517f08c379a0000000000000000000000000000000000000000000000000000000008152600401611a4090614b0d565b60405180910390fd5b8015611ad757611a6082610120015161010061175b565b8015611a995750600073ffffffffffffffffffffffffffffffffffffffff168373ffffffffffffffffffffffffffffffffffffffff1614155b15611ad657611ad1838360e00151846000015173ffffffffffffffffffffffffffffffffffffffff16612dcb9092919063ffffffff16565b611bc1565b5b6000805b836040015151811015611b775783606001518181518110611aff57611afe613f38565b5b602002602001015182611b129190614b2d565b9150611b6c846000015184611b275787611b29565b305b86604001518481518110611b4057611b3f613f38565b5b602002602001015187606001518581518110611b5f57611b5e613f38565b5b6020026020010151611e7c565b806001019050611adb565b508260e00151811115611bbf576040517f08c379a0000000000000000000000000000000000000000000000000000000008152600401611bb690614bad565b60405180910390fd5b505b50505050565b6000806000611bda866020015185611dca565b90506000611bec876000015130611dca565b90506000611bfe886020015130611dca565b905060008a73ffffffffffffffffffffffffffffffffffffffff16888b604051611c289190614674565b60006040518083038185875af1925050503d8060008114611c65576040519150601f19603f3d011682016040523d82523d6000602084013e611c6a565b606091505b5050905080611cae576040517f08c379a0000000000000000000000000000000000000000000000000000000008152600401611ca590614c19565b60405180910390fd5b503073ffffffffffffffffffffffffffffffffffffffff168673ffffffffffffffffffffffffffffffffffffffff1614611d1157600081611cf38a6020015130611dca565b611cfd919061412d565b9050611d0f8960200151308984611e7c565b505b82611d20896020015188611dca565b611d2a919061412d565b93508760e001519450611d43886101200151600161175b565b8015611d6f5750611d578860000151611913565b80611d6e5750611d6d886101200151600461175b565b5b5b15611dbd576000611d84896000015130611dca565b9050828114611dbb578083611d99919061412d565b9550611dba89600001513033898d60e00151611db5919061412d565b611e7c565b5b505b5050509550959350505050565b6000611dd583611913565b15611df9578173ffffffffffffffffffffffffffffffffffffffff16319050611e76565b8273ffffffffffffffffffffffffffffffffffffffff166370a08231836040518263ffffffff1660e01b8152600401611e329190613ec6565b602060405180830381865afa158015611e4f573d6000803e3d6000fd5b505050506040513d601f19601f82011682018060405250810190611e7391906146c9565b90505b92915050565b8173ffffffffffffffffffffffffffffffffffffffff168373ffffffffffffffffffffffffffffffffffffffff1603611eea576040517f08c379a0000000000000000000000000000000000000000000000000000000008152600401611ee190614c85565b60405180910390fd5b6000811115611f9657611efc84611913565b15611f44573073ffffffffffffffffffffffffffffffffffffffff168373ffffffffffffffffffffffffffffffffffffffff1603611f3f57611f3e8282612279565b5b611f95565b3073ffffffffffffffffffffffffffffffffffffffff168373ffffffffffffffffffffffffffffffffffffffff1603611f8757611f82848383612383565b611f94565b611f9384848484612edd565b5b5b5b50505050565b611fac816101200151600161175b565b156120185782816101000151611fc291906147c8565b8160e0015183611fd291906147c8565b1015612013576040517f08c379a000000000000000000000000000000000000000000000000000000000815260040161200a90614cf1565b60405180910390fd5b612061565b806101000151821015612060576040517f08c379a000000000000000000000000000000000000000000000000000000000815260040161205790614cf1565b60405180910390fd5b5b505050565b60008114806120f0575060008373ffffffffffffffffffffffffffffffffffffffff1663dd62ed3e30856040518363ffffffff1660e01b81526004016120ad92919061468b565b602060405180830381865afa1580156120ca573d6000803e3d6000fd5b505050506040513d601f19601f820116820180604052508101906120ee91906146c9565b145b61212f576040517f08c379a000000000000000000000000000000000000000000000000000000000815260040161212690614d83565b60405180910390fd5b6121b08363095ea7b360e01b848460405160240161214e929190614da3565b604051602081830303815290604052907bffffffffffffffffffffffffffffffffffffffffffffffffffffffff19166020820180517bffffffffffffffffffffffffffffffffffffffffffffffffffffffff8381831617835250505050613020565b505050565b60008060009054906101000a900473ffffffffffffffffffffffffffffffffffffffff169050816000806101000a81548173ffffffffffffffffffffffffffffffffffffffff021916908373ffffffffffffffffffffffffffffffffffffffff1602179055508173ffffffffffffffffffffffffffffffffffffffff168173ffffffffffffffffffffffffffffffffffffffff167f8be0079c531659141344cd1fd0a4f28419497f9722a3daafe3b4186f6b6457e060405160405180910390a35050565b600081031561237f5760008273ffffffffffffffffffffffffffffffffffffffff1682600067ffffffffffffffff8111156122b7576122b66135d4565b5b6040519080825280601f01601f1916602001820160405280156122e95781602001600182028036833780820191505090505b506040516122f79190614674565b60006040518083038185875af1925050503d8060008114612334576040519150601f19603f3d011682016040523d82523d6000602084013e612339565b606091505b505090508061237d576040517f08c379a000000000000000000000000000000000000000000000000000000000815260040161237490614e3e565b60405180910390fd5b505b5050565b60008103156124be576000808473ffffffffffffffffffffffffffffffffffffffff1663a9059cbb85856040516024016123be929190614da3565b6040516020818303038152906040529060e01b6020820180517bffffffffffffffffffffffffffffffffffffffffffffffffffffffff838183161783525050505060405161240c9190614674565b6000604051808303816000865af19150503d8060008114612449576040519150601f19603f3d011682016040523d82523d6000602084013e61244e565b606091505b509150915081801561247c575060008151148061247b57508080602001905181019061247a9190614e73565b5b5b6124bb576040517f08c379a00000000000000000000000000000000000000000000000000000000081526004016124b290614eec565b60405180910390fd5b50505b505050565b600082828101906124d491906150e9565b9050428160600151101561251d576040517f08c379a00000000000000000000000000000000000000000000000000000000081526004016125149061517e565b60405180910390fd5b80602001515181600001515114801561253f5750806040015151816000015151145b61257e576040517f08c379a0000000000000000000000000000000000000000000000000000000008152600401612575906151ea565b60405180910390fd5b6000816000015151905060005b8181101561280457600061259f8a33611dca565b90506125e98a33866000015185815181106125bd576125bc613f38565b5b6020026020010151876020015186815181106125dc576125db613f38565b5b6020026020010151611e7c565b888460200151838151811061260157612600613f38565b5b6020026020010151111561264a576040517f08c379a000000000000000000000000000000000000000000000000000000000815260040161264190615256565b60405180910390fd5b60006126568b33611dca565b82612661919061412d565b9050808a61266f919061412d565b995050506000808b73ffffffffffffffffffffffffffffffffffffffff16638b674f5d60e01b866040015185815181106126ac576126ab613f38565b5b60200260200101516040516024016126c491906152af565b604051602081830303815290604052907bffffffffffffffffffffffffffffffffffffffffffffffffffffffff19166020820180517bffffffffffffffffffffffffffffffffffffffffffffffffffffffff838183161783525050505060405161272e9190614674565b6000604051808303816000865af19150503d806000811461276b576040519150601f19603f3d011682016040523d82523d6000602084013e612770565b606091505b5091509150816127f5576127b9816040518060400160405280601b81526020017f7377617053696e676c6553657175656e6365206661696c65643a20000000000081525061296b565b6040517f08c379a00000000000000000000000000000000000000000000000000000000081526004016127ec919061473a565b60405180910390fd5b5050808060010191505061258b565b506000808a73ffffffffffffffffffffffffffffffffffffffff1663774b6b7e60e01b8b8a8a886080015160405160240161284294939291906152d1565b604051602081830303815290604052907bffffffffffffffffffffffffffffffffffffffffffffffffffffffff19166020820180517bffffffffffffffffffffffffffffffffffffffffffffffffffffffff83818316178352505050506040516128ac9190614674565b6000604051808303816000865af19150503d80600081146128e9576040519150601f19603f3d011682016040523d82523d6000602084013e6128ee565b606091505b5091509150816129565761291a816040518060600160405280602381526020016158396023913961296b565b6040517f08c379a000000000000000000000000000000000000000000000000000000000815260040161294d919061473a565b60405180910390fd5b5050505050505050505050565b600033905090565b606060448351101580156129de57507f0800000000000000000000000000000000000000000000000000000000000000836000815181106129af576129ae613f38565b5b602001015160f81c60f81b7effffffffffffffffffffffffffffffffffffffffffffffffffffffffffffff1916145b8015612a4957507fc30000000000000000000000000000000000000000000000000000000000000083600181518110612a1a57612a19613f38565b5b602001015160f81c60f81b7effffffffffffffffffffffffffffffffffffffffffffffffffffffffffffff1916145b8015612ab457507f790000000000000000000000000000000000000000000000000000000000000083600281518110612a8557612a84613f38565b5b602001015160f81c60f81b7effffffffffffffffffffffffffffffffffffffffffffffffffffffffffffff1916145b8015612b1f57507fa00000000000000000000000000000000000000000000000000000000000000083600381518110612af057612aef613f38565b5b602001015160f81c60f81b7effffffffffffffffffffffffffffffffffffffffffffffffffffffffffffff1916145b15612ba757606060448401905080516044612b3a9190614b2d565b84511015612b7d576040517f08c379a0000000000000000000000000000000000000000000000000000000008152600401612b7490615369565b60405180910390fd5b8281604051602001612b9092919061545d565b604051602081830303815290604052915050612dc5565b60248351148015612c1757507f4e0000000000000000000000000000000000000000000000000000000000000083600081518110612be857612be7613f38565b5b602001015160f81c60f81b7effffffffffffffffffffffffffffffffffffffffffffffffffffffffffffff1916145b8015612c8257507f480000000000000000000000000000000000000000000000000000000000000083600181518110612c5357612c52613f38565b5b602001015160f81c60f81b7effffffffffffffffffffffffffffffffffffffffffffffffffffffffffffff1916145b8015612ced57507f7b0000000000000000000000000000000000000000000000000000000000000083600281518110612cbe57612cbd613f38565b5b602001015160f81c60f81b7effffffffffffffffffffffffffffffffffffffffffffffffffffffffffffff1916145b8015612d5857507f710000000000000000000000000000000000000000000000000000000000000083600381518110612d2957612d28613f38565b5b602001015160f81c60f81b7effffffffffffffffffffffffffffffffffffffffffffffffffffffffffffff1916145b15612d985760006024840151905082612d70826130e8565b604051602001612d819291906154e3565b604051602081830303815290604052915050612dc5565b81612da284613119565b604051602001612db3929190615569565b60405160208183030381529060405290505b92915050565b60008373ffffffffffffffffffffffffffffffffffffffff1663dd62ed3e30856040518363ffffffff1660e01b8152600401612e0892919061468b565b602060405180830381865afa158015612e25573d6000803e3d6000fd5b505050506040513d601f19601f82011682018060405250810190612e4991906146c9565b9050612ed78463095ea7b360e01b858585612e649190614b2d565b604051602401612e75929190614da3565b604051602081830303815290604052907bffffffffffffffffffffffffffffffffffffffffffffffffffffffff19166020820180517bffffffffffffffffffffffffffffffffffffffffffffffffffffffff8381831617835250505050613020565b50505050565b600081031561301a576000808573ffffffffffffffffffffffffffffffffffffffff166323b872dd868686604051602401612f1a939291906155a3565b6040516020818303038152906040529060e01b6020820180517bffffffffffffffffffffffffffffffffffffffffffffffffffffffff8381831617835250505050604051612f689190614674565b6000604051808303816000865af19150503d8060008114612fa5576040519150601f19603f3d011682016040523d82523d6000602084013e612faa565b606091505b5091509150818015612fd85750600081511480612fd7575080806020019051810190612fd69190614e73565b5b5b613017576040517f08c379a000000000000000000000000000000000000000000000000000000000815260040161300e9061564c565b60405180910390fd5b50505b50505050565b6000613082826040518060400160405280602081526020017f5361666545524332303a206c6f772d6c6576656c2063616c6c206661696c65648152508573ffffffffffffffffffffffffffffffffffffffff166133dd9092919063ffffffff16565b90506000815114806130a45750808060200190518101906130a39190614e73565b5b6130e3576040517f08c379a00000000000000000000000000000000000000000000000000000000081526004016130da906156de565b60405180910390fd5b505050565b6060613112826040516020016130fe919061571f565b604051602081830303815290604052613119565b9050919050565b606060006f3031323334353637383961626364656660801b905060006002845161314391906147c8565b600261314f9190614b2d565b67ffffffffffffffff811115613168576131676135d4565b5b6040519080825280601f01601f19166020018201604052801561319a5781602001600182028036833780820191505090505b5090507f3000000000000000000000000000000000000000000000000000000000000000816000815181106131d2576131d1613f38565b5b60200101907effffffffffffffffffffffffffffffffffffffffffffffffffffffffffffff1916908160001a9053507f78000000000000000000000000000000000000000000000000000000000000008160018151811061323657613235613f38565b5b60200101907effffffffffffffffffffffffffffffffffffffffffffffffffffffffffffff1916908160001a90535060005b84518110156133d25782600486838151811061328757613286613f38565b5b602001015160f81c60f81b7effffffffffffffffffffffffffffffffffffffffffffffffffffffffffffff1916901c60f81c60ff16601081106132cd576132cc613f38565b5b1a60f81b8260028360026132e191906147c8565b6132eb9190614b2d565b815181106132fc576132fb613f38565b5b60200101907effffffffffffffffffffffffffffffffffffffffffffffffffffffffffffff1916908160001a90535082600f60f81b86838151811061334457613343613f38565b5b602001015160f81c60f81b1660f81c60ff166010811061336757613366613f38565b5b1a60f81b82600383600261337b91906147c8565b6133859190614b2d565b8151811061339657613395613f38565b5b60200101907effffffffffffffffffffffffffffffffffffffffffffffffffffffffffffff1916908160001a9053508080600101915050613268565b508092505050919050565b60606133ec84846000856133f5565b90509392505050565b60608247101561343a576040517f08c379a0000000000000000000000000000000000000000000000000000000008152600401613431906157ac565b60405180910390fd5b6000808673ffffffffffffffffffffffffffffffffffffffff1685876040516134639190614674565b60006040518083038185875af1925050503d80600081146134a0576040519150601f19603f3d011682016040523d82523d6000602084013e6134a5565b606091505b50915091506134b6878383876134c2565b92505050949350505050565b6060831561352457600083510361351c576134dc85613537565b61351b576040517f08c379a000000000000000000000000000000000000000000000000000000000815260040161351290615818565b60405180910390fd5b5b82905061352f565b61352e838361355a565b5b949350505050565b6000808273ffffffffffffffffffffffffffffffffffffffff163b119050919050565b60008251111561356d5781518083602001fd5b806040517f08c379a00000000000000000000000000000000000000000000000000000000081526004016135a1919061473a565b60405180910390fd5b6000604051905090565b600080fd5b600080fd5b600080fd5b6000601f19601f8301169050919050565b7f4e487b7100000000000000000000000000000000000000000000000000000000600052604160045260246000fd5b61360c826135c3565b810181811067ffffffffffffffff8211171561362b5761362a6135d4565b5b80604052505050565b600061363e6135aa565b905061364a8282613603565b919050565b600067ffffffffffffffff82111561366a576136696135d4565b5b602082029050602081019050919050565b600080fd5b600073ffffffffffffffffffffffffffffffffffffffff82169050919050565b60006136ab82613680565b9050919050565b6136bb816136a0565b81146136c657600080fd5b50565b6000813590506136d8816136b2565b92915050565b60006136f16136ec8461364f565b613634565b905080838252602082019050602084028301858111156137145761371361367b565b5b835b8181101561373d578061372988826136c9565b845260208401935050602081019050613716565b5050509392505050565b600082601f83011261375c5761375b6135be565b5b813561376c8482602086016136de565b91505092915050565b600067ffffffffffffffff8211156137905761378f6135d4565b5b602082029050602081019050919050565b60008115159050919050565b6137b6816137a1565b81146137c157600080fd5b50565b6000813590506137d3816137ad565b92915050565b60006137ec6137e784613775565b613634565b9050808382526020820190506020840283018581111561380f5761380e61367b565b5b835b81811015613838578061382488826137c4565b845260208401935050602081019050613811565b5050509392505050565b600082601f830112613857576138566135be565b5b81356138678482602086016137d9565b91505092915050565b60008060408385031215613887576138866135b4565b5b600083013567ffffffffffffffff8111156138a5576138a46135b9565b5b6138b185828601613747565b925050602083013567ffffffffffffffff8111156138d2576138d16135b9565b5b6138de85828601613842565b9150509250929050565b600080fd5b600060a08284031215613903576139026138e8565b5b81905092915050565b600060208284031215613922576139216135b4565b5b600082013567ffffffffffffffff8111156139405761393f6135b9565b5b61394c848285016138ed565b91505092915050565b6000819050919050565b61396881613955565b82525050565b6000604082019050613983600083018561395f565b613990602083018461395f565b9392505050565b6139a081613955565b81146139ab57600080fd5b50565b6000813590506139bd81613997565b92915050565b600080604083850312156139da576139d96135b4565b5b60006139e8858286016136c9565b92505060206139f9858286016139ae565b9150509250929050565b6000613a0e826136a0565b9050919050565b613a1e81613a03565b8114613a2957600080fd5b50565b600081359050613a3b81613a15565b92915050565b600080fd5b600080fd5b6000613a56826136a0565b9050919050565b613a6681613a4b565b8114613a7157600080fd5b50565b600081359050613a8381613a5d565b92915050565b600067ffffffffffffffff821115613aa457613aa36135d4565b5b602082029050602081019050919050565b6000613ac8613ac384613a89565b613634565b90508083825260208201905060208402830185811115613aeb57613aea61367b565b5b835b81811015613b145780613b0088826139ae565b845260208401935050602081019050613aed565b5050509392505050565b600082601f830112613b3357613b326135be565b5b8135613b43848260208601613ab5565b91505092915050565b600080fd5b600067ffffffffffffffff821115613b6c57613b6b6135d4565b5b613b75826135c3565b9050602081019050919050565b82818337600083830152505050565b6000613ba4613b9f84613b51565b613634565b905082815260208101848484011115613bc057613bbf613b4c565b5b613bcb848285613b82565b509392505050565b600082601f830112613be857613be76135be565b5b8135613bf8848260208601613b91565b91505092915050565b60006101608284031215613c1857613c17613a41565b5b613c23610160613634565b90506000613c3384828501613a74565b6000830152506020613c4784828501613a74565b602083015250604082013567ffffffffffffffff811115613c6b57613c6a613a46565b5b613c7784828501613747565b604083015250606082013567ffffffffffffffff811115613c9b57613c9a613a46565b5b613ca784828501613b1e565b606083015250608082013567ffffffffffffffff811115613ccb57613cca613a46565b5b613cd784828501613747565b60808301525060a082013567ffffffffffffffff811115613cfb57613cfa613a46565b5b613d0784828501613b1e565b60a08301525060c0613d1b848285016136c9565b60c08301525060e0613d2f848285016139ae565b60e083015250610100613d44848285016139ae565b61010083015250610120613d5a848285016139ae565b6101208301525061014082013567ffffffffffffffff811115613d8057613d7f613a46565b5b613d8c84828501613bd3565b6101408301525092915050565b600080fd5b60008083601f840112613db457613db36135be565b5b8235905067ffffffffffffffff811115613dd157613dd0613d99565b5b602083019150836001820283011115613ded57613dec61367b565b5b9250929050565b60008060008060008060808789031215613e1157613e106135b4565b5b6000613e1f89828a01613a2c565b965050602087013567ffffffffffffffff811115613e4057613e3f6135b9565b5b613e4c89828a01613c01565b955050604087013567ffffffffffffffff811115613e6d57613e6c6135b9565b5b613e7989828a01613d9e565b9450945050606087013567ffffffffffffffff811115613e9c57613e9b6135b9565b5b613ea889828a01613d9e565b92509250509295509295509295565b613ec0816136a0565b82525050565b6000602082019050613edb6000830184613eb7565b92915050565b600060208284031215613ef757613ef66135b4565b5b6000613f05848285016136c9565b91505092915050565b613f17816137a1565b82525050565b6000602082019050613f326000830184613f0e565b92915050565b7f4e487b7100000000000000000000000000000000000000000000000000000000600052603260045260246000fd5b600082825260208201905092915050565b7f41646472657373206e6f742077686974656c6973746564000000000000000000600082015250565b6000613fae601783613f67565b9150613fb982613f78565b602082019050919050565b60006020820190508181036000830152613fdd81613fa1565b9050919050565b600080fd5b600080fd5b600080fd5b600082356001610160038336030381126140105761400f613fe4565b5b80830191505092915050565b60006140283683613c01565b9050919050565b7f496e76616c6964206d696e2072657475726e20616d6f756e7400000000000000600082015250565b6000614065601983613f67565b91506140708261402f565b602082019050919050565b6000602082019050818103600083015261409481614058565b9050919050565b600080833560016020038436030381126140b8576140b7613fe4565b5b80840192508235915067ffffffffffffffff8211156140da576140d9613fe9565b5b6020830192506001820236038313156140f6576140f5613fee565b5b509250929050565b7f4e487b7100000000000000000000000000000000000000000000000000000000600052601160045260246000fd5b600061413882613955565b915061414383613955565b925082820390508181111561415b5761415a6140fe565b5b92915050565b6000819050919050565b600061418661418161417c84613680565b614161565b613680565b9050919050565b60006141988261416b565b9050919050565b60006141aa8261418d565b9050919050565b6141ba8161419f565b82525050565b600060c0820190506141d56000830189613eb7565b6141e260208301886141b1565b6141ef60408301876141b1565b6141fc6060830186613eb7565b614209608083018561395f565b61421660a083018461395f565b979650505050505050565b60006060820190506142366000830186613eb7565b614243602083018561395f565b6142506040830184613eb7565b949350505050565b600082825260208201905092915050565b60006142758385614258565b9350614282838584613b82565b61428b836135c3565b840190509392505050565b600060208201905081810360008301526142b1818486614269565b90509392505050565b7f737263206973206574682c2073686f756c6420757365206e6f726d616c20737760008201527f6170000000000000000000000000000000000000000000000000000000000000602082015250565b6000614316602283613f67565b9150614321826142ba565b604082019050919050565b6000602082019050818103600083015261434581614309565b9050919050565b7f4d696e2072657475726e2073686f756c64206e6f742062652030000000000000600082015250565b6000614382601a83613f67565b915061438d8261434c565b602082019050919050565b600060208201905081810360008301526143b181614375565b9050919050565b7f6578656375746f72446174612073686f756c64206265206e6f74207a65726f00600082015250565b60006143ee601f83613f67565b91506143f9826143b8565b602082019050919050565b6000602082019050818103600083015261441d816143e1565b9050919050565b7f4f776e61626c653a206e6577206f776e657220697320746865207a65726f206160008201527f6464726573730000000000000000000000000000000000000000000000000000602082015250565b6000614480602683613f67565b915061448b82614424565b604082019050919050565b600060208201905081810360008301526144af81614473565b9050919050565b7f4f776e61626c653a2063616c6c6572206973206e6f7420746865206f776e6572600082015250565b60006144ec602083613f67565b91506144f7826144b6565b602082019050919050565b6000602082019050818103600083015261451b816144df565b9050919050565b7f496e76616c6964206d73672e76616c7565000000000000000000000000000000600082015250565b6000614558601183613f67565b915061456382614522565b602082019050919050565b600060208201905081810360008301526145878161454b565b9050919050565b60007fffffffff0000000000000000000000000000000000000000000000000000000082169050919050565b6000819050919050565b6145d56145d08261458e565b6145ba565b82525050565b600081519050919050565b600081905092915050565b60005b8381101561460f5780820151818401526020810190506145f4565b60008484015250505050565b6000614626826145db565b61463081856145e6565b93506146408185602086016145f1565b80840191505092915050565b600061465882856145c4565b600482019150614668828461461b565b91508190509392505050565b6000614680828461461b565b915081905092915050565b60006040820190506146a06000830185613eb7565b6146ad6020830184613eb7565b9392505050565b6000815190506146c381613997565b92915050565b6000602082840312156146df576146de6135b4565b5b60006146ed848285016146b4565b91505092915050565b600081519050919050565b600061470c826146f6565b6147168185613f67565b93506147268185602086016145f1565b61472f816135c3565b840191505092915050565b600060208201905081810360008301526147548184614701565b905092915050565b7f496e76616c6964206c656e677468000000000000000000000000000000000000600082015250565b6000614792600e83613f67565b915061479d8261475c565b602082019050919050565b600060208201905081810360008301526147c181614785565b9050919050565b60006147d382613955565b91506147de83613955565b92508282026147ec81613955565b91508282048414831517614803576148026140fe565b5b5092915050565b7f4e487b7100000000000000000000000000000000000000000000000000000000600052601260045260246000fd5b600061484482613955565b915061484f83613955565b92508261485f5761485e61480a565b5b828204905092915050565b600081519050919050565b600082825260208201905092915050565b6000819050602082019050919050565b61489f816136a0565b82525050565b60006148b18383614896565b60208301905092915050565b6000602082019050919050565b60006148d58261486a565b6148df8185614875565b93506148ea83614886565b8060005b8381101561491b57815161490288826148a5565b975061490d836148bd565b9250506001810190506148ee565b5085935050505092915050565b600081519050919050565b600082825260208201905092915050565b6000819050602082019050919050565b61495d81613955565b82525050565b600061496f8383614954565b60208301905092915050565b6000602082019050919050565b600061499382614928565b61499d8185614933565b93506149a883614944565b8060005b838110156149d95781516149c08882614963565b97506149cb8361497b565b9250506001810190506149ac565b5085935050505092915050565b600060c0820190506149fb6000830189613eb7565b614a08602083018861395f565b614a15604083018761395f565b8181036060830152614a2781866148ca565b90508181036080830152614a3b8185614988565b9050614a4a60a0830184613f0e565b979650505050505050565b7f436c61696d20746f6b656e206973204554480000000000000000000000000000600082015250565b6000614a8b601283613f67565b9150614a9682614a55565b602082019050919050565b60006020820190508181036000830152614aba81614a7e565b9050919050565b7f696e76616c696420737263526563656976657273206c656e6774680000000000600082015250565b6000614af7601b83613f67565b9150614b0282614ac1565b602082019050919050565b60006020820190508181036000830152614b2681614aea565b9050919050565b6000614b3882613955565b9150614b4383613955565b9250828201905080821115614b5b57614b5a6140fe565b5b92915050565b7f457863656564656420646573632e616d6f756e74000000000000000000000000600082015250565b6000614b97601483613f67565b9150614ba282614b61565b602082019050919050565b60006020820190508181036000830152614bc681614b8a565b9050919050565b7f43616c6c206661696c6564000000000000000000000000000000000000000000600082015250565b6000614c03600b83613f67565b9150614c0e82614bcd565b602082019050919050565b60006020820190508181036000830152614c3281614bf6565b9050919050565b7f73656e64657220213d20726563697069656e7400000000000000000000000000600082015250565b6000614c6f601383613f67565b9150614c7a82614c39565b602082019050919050565b60006020820190508181036000830152614c9e81614c62565b9050919050565b7f52657475726e20616d6f756e74206973206e6f7420656e6f7567680000000000600082015250565b6000614cdb601b83613f67565b9150614ce682614ca5565b602082019050919050565b60006020820190508181036000830152614d0a81614cce565b9050919050565b7f5361666545524332303a20617070726f76652066726f6d206e6f6e2d7a65726f60008201527f20746f206e6f6e2d7a65726f20616c6c6f77616e636500000000000000000000602082015250565b6000614d6d603683613f67565b9150614d7882614d11565b604082019050919050565b60006020820190508181036000830152614d9c81614d60565b9050919050565b6000604082019050614db86000830185613eb7565b614dc5602083018461395f565b9392505050565b7f5472616e7366657248656c7065723a204554485f5452414e534645525f46414960008201527f4c45440000000000000000000000000000000000000000000000000000000000602082015250565b6000614e28602383613f67565b9150614e3382614dcc565b604082019050919050565b60006020820190508181036000830152614e5781614e1b565b9050919050565b600081519050614e6d816137ad565b92915050565b600060208284031215614e8957614e886135b4565b5b6000614e9784828501614e5e565b91505092915050565b7f5472616e7366657248656c7065723a205452414e534645525f4641494c454400600082015250565b6000614ed6601f83613f67565b9150614ee182614ea0565b602082019050919050565b60006020820190508181036000830152614f0581614ec9565b9050919050565b600067ffffffffffffffff821115614f2757614f266135d4565b5b602082029050602081019050919050565b6000614f4b614f4684614f0c565b613634565b90508083825260208201905060208402830185811115614f6e57614f6d61367b565b5b835b81811015614fb557803567ffffffffffffffff811115614f9357614f926135be565b5b808601614fa08982613bd3565b85526020850194505050602081019050614f70565b5050509392505050565b600082601f830112614fd457614fd36135be565b5b8135614fe4848260208601614f38565b91505092915050565b600060a0828403121561500357615002613a41565b5b61500d60a0613634565b9050600082013567ffffffffffffffff81111561502d5761502c613a46565b5b61503984828501613747565b600083015250602082013567ffffffffffffffff81111561505d5761505c613a46565b5b61506984828501613b1e565b602083015250604082013567ffffffffffffffff81111561508d5761508c613a46565b5b61509984828501614fbf565b60408301525060606150ad848285016139ae565b606083015250608082013567ffffffffffffffff8111156150d1576150d0613a46565b5b6150dd84828501613bd3565b60808301525092915050565b6000602082840312156150ff576150fe6135b4565b5b600082013567ffffffffffffffff81111561511d5761511c6135b9565b5b61512984828501614fed565b91505092915050565b7f524f555445523a20457870697265640000000000000000000000000000000000600082015250565b6000615168600f83613f67565b915061517382615132565b602082019050919050565b600060208201905081810360008301526151978161515b565b9050919050565b7f696e76616c696420737761702064617461206c656e6774680000000000000000600082015250565b60006151d4601883613f67565b91506151df8261519e565b602082019050919050565b60006020820190508181036000830152615203816151c7565b9050919050565b7f696e76616c6964207377617020616d6f756e7400000000000000000000000000600082015250565b6000615240601383613f67565b915061524b8261520a565b602082019050919050565b6000602082019050818103600083015261526f81615233565b9050919050565b6000615281826145db565b61528b8185614258565b935061529b8185602086016145f1565b6152a4816135c3565b840191505092915050565b600060208201905081810360008301526152c98184615276565b905092915050565b60006080820190506152e66000830187613eb7565b6152f36020830186613eb7565b6153006040830185613eb7565b81810360608301526153128184615276565b905095945050505050565b7f496e76616c69642072657665727420726561736f6e0000000000000000000000600082015250565b6000615353601583613f67565b915061535e8261531d565b602082019050919050565b6000602082019050818103600083015261538281615346565b9050919050565b600081905092915050565b600061539f826146f6565b6153a98185615389565b93506153b98185602086016145f1565b80840191505092915050565b7f4572726f72280000000000000000000000000000000000000000000000000000600082015250565b60006153fb600683615389565b9150615406826153c5565b600682019050919050565b7f2900000000000000000000000000000000000000000000000000000000000000600082015250565b6000615447600183615389565b915061545282615411565b600182019050919050565b60006154698285615394565b9150615474826153ee565b91506154808284615394565b915061548b8261543a565b91508190509392505050565b7f50616e6963280000000000000000000000000000000000000000000000000000600082015250565b60006154cd600683615389565b91506154d882615497565b600682019050919050565b60006154ef8285615394565b91506154fa826154c0565b91506155068284615394565b91506155118261543a565b91508190509392505050565b7f556e6b6e6f776e28000000000000000000000000000000000000000000000000600082015250565b6000615553600883615389565b915061555e8261551d565b600882019050919050565b60006155758285615394565b915061558082615546565b915061558c8284615394565b91506155978261543a565b91508190509392505050565b60006060820190506155b86000830186613eb7565b6155c56020830185613eb7565b6155d2604083018461395f565b949350505050565b7f5472616e7366657248656c7065723a205452414e534645525f46524f4d5f464160008201527f494c454400000000000000000000000000000000000000000000000000000000602082015250565b6000615636602483613f67565b9150615641826155da565b604082019050919050565b6000602082019050818103600083015261566581615629565b9050919050565b7f5361666545524332303a204552433230206f7065726174696f6e20646964206e60008201527f6f74207375636365656400000000000000000000000000000000000000000000602082015250565b60006156c8602a83613f67565b91506156d38261566c565b604082019050919050565b600060208201905081810360008301526156f7816156bb565b9050919050565b6000819050919050565b61571961571482613955565b6156fe565b82525050565b600061572b8284615708565b60208201915081905092915050565b7f416464726573733a20696e73756666696369656e742062616c616e636520666f60008201527f722063616c6c0000000000000000000000000000000000000000000000000000602082015250565b6000615796602683613f67565b91506157a18261573a565b604082019050919050565b600060208201905081810360008301526157c581615789565b9050919050565b7f416464726573733a2063616c6c20746f206e6f6e2d636f6e7472616374000000600082015250565b6000615802601d83613f67565b915061580d826157cc565b602082019050919050565b60006020820190508181036000830152615831816157f5565b905091905056fe66696e616c5472616e73616374696f6e50726f63657373696e67206661696c65643a20a2646970667358221220cf910c56d772af470a4742ea0021d1e99c006f466156e5cac747b936a41fbcad64736f6c634300081a0033",
  "devdoc": {
    "kind": "dev",
    "methods": {
      "owner()": {
        "details": "Returns the address of the current owner."
      },
      "renounceOwnership()": {
        "details": "Leaves the contract without owner. It will not be possible to call `onlyOwner` functions. Can only be called by the current owner. NOTE: Renouncing ownership will leave the contract without an owner, thereby disabling any functionality that is only available to the owner."
      },
      "transferOwnership(address)": {
        "details": "Transfers ownership of the contract to a new account (`newOwner`). Can only be called by the current owner."
      }
    },
    "version": 1
  },
  "userdoc": {
    "kind": "user",
    "methods": {},
    "version": 1
  },
  "storageLayout": {
    "storage": [
      {
        "astId": 7,
        "contract": "contracts/MetaAggregationRouterV2.sol:MetaAggregationRouterV2",
        "label": "_owner",
        "offset": 0,
        "slot": "0",
        "type": "t_address"
      },
      {
        "astId": 1024,
        "contract": "contracts/MetaAggregationRouterV2.sol:MetaAggregationRouterV2",
        "label": "isWhitelist",
        "offset": 0,
        "slot": "1",
        "type": "t_mapping(t_address,t_bool)"
      }
    ],
    "types": {
      "t_address": {
        "encoding": "inplace",
        "label": "address",
        "numberOfBytes": "20"
      },
      "t_bool": {
        "encoding": "inplace",
        "label": "bool",
        "numberOfBytes": "1"
      },
      "t_mapping(t_address,t_bool)": {
        "encoding": "mapping",
        "key": "t_address",
        "label": "mapping(address => bool)",
        "numberOfBytes": "32",
        "value": "t_bool"
      }
    }
  }
}